{
  "_format": "hh-sol-artifact-1",
  "contractName": "NFTCreationPolygon",
  "sourceName": "contracts/NFTCreations/CreateNFT_Poly.sol",
  "abi": [
    {
      "inputs": [
        {
          "internalType": "address",
          "name": "marketplace_contractaddress",
          "type": "address"
        },
        {
          "internalType": "address",
          "name": "_nftvaultaddress",
          "type": "address"
        }
      ],
      "stateMutability": "nonpayable",
      "type": "constructor"
    },
    {
      "anonymous": false,
      "inputs": [
        {
          "indexed": true,
          "internalType": "address",
          "name": "owner",
          "type": "address"
        },
        {
          "indexed": true,
          "internalType": "address",
          "name": "approved",
          "type": "address"
        },
        {
          "indexed": true,
          "internalType": "uint256",
          "name": "tokenId",
          "type": "uint256"
        }
      ],
      "name": "Approval",
      "type": "event"
    },
    {
      "anonymous": false,
      "inputs": [
        {
          "indexed": true,
          "internalType": "address",
          "name": "owner",
          "type": "address"
        },
        {
          "indexed": true,
          "internalType": "address",
          "name": "operator",
          "type": "address"
        },
        {
          "indexed": false,
          "internalType": "bool",
          "name": "approved",
          "type": "bool"
        }
      ],
      "name": "ApprovalForAll",
      "type": "event"
    },
    {
      "anonymous": false,
      "inputs": [
        {
          "indexed": true,
          "internalType": "address",
          "name": "from",
          "type": "address"
        },
        {
          "indexed": true,
          "internalType": "address",
          "name": "to",
          "type": "address"
        },
        {
          "indexed": true,
          "internalType": "uint256",
          "name": "tokenId",
          "type": "uint256"
        }
      ],
      "name": "Transfer",
      "type": "event"
    },
    {
      "inputs": [
        {
          "internalType": "address",
          "name": "to",
          "type": "address"
        },
        {
          "internalType": "uint256",
          "name": "tokenId",
          "type": "uint256"
        }
      ],
      "name": "approve",
      "outputs": [],
      "stateMutability": "nonpayable",
      "type": "function"
    },
    {
      "inputs": [
        {
          "internalType": "address",
          "name": "owner",
          "type": "address"
        }
      ],
      "name": "balanceOf",
      "outputs": [
        {
          "internalType": "uint256",
          "name": "",
          "type": "uint256"
        }
      ],
      "stateMutability": "view",
      "type": "function"
    },
    {
      "inputs": [
        {
          "internalType": "uint256",
          "name": "_tokenid",
          "type": "uint256"
        }
      ],
      "name": "changelistingstatus",
      "outputs": [],
      "stateMutability": "nonpayable",
      "type": "function"
    },
    {
      "inputs": [
        {
          "internalType": "string",
          "name": "tokenuri",
          "type": "string"
        }
      ],
      "name": "createNFT",
      "outputs": [
        {
          "internalType": "uint256",
          "name": "",
          "type": "uint256"
        }
      ],
      "stateMutability": "nonpayable",
      "type": "function"
    },
    {
      "inputs": [
        {
          "internalType": "uint256",
          "name": "tokenId",
          "type": "uint256"
        }
      ],
      "name": "getApproved",
      "outputs": [
        {
          "internalType": "address",
          "name": "",
          "type": "address"
        }
      ],
      "stateMutability": "view",
      "type": "function"
    },
    {
      "inputs": [],
      "name": "getcurrentnftid",
      "outputs": [
        {
          "internalType": "uint256",
          "name": "",
          "type": "uint256"
        }
      ],
      "stateMutability": "view",
      "type": "function"
    },
    {
      "inputs": [],
      "name": "getmycreatednftsdata",
      "outputs": [
        {
          "components": [
            {
              "internalType": "address",
              "name": "creator",
              "type": "address"
            },
            {
              "internalType": "string",
              "name": "nfttokenuri",
              "type": "string"
            },
            {
              "internalType": "uint256",
              "name": "tokenid",
              "type": "uint256"
            },
            {
              "internalType": "uint256",
              "name": "islisted",
              "type": "uint256"
            }
          ],
          "internalType": "struct NFTCreationPolygon.creatednfts[]",
          "name": "",
          "type": "tuple[]"
        }
      ],
      "stateMutability": "view",
      "type": "function"
    },
    {
      "inputs": [],
      "name": "getmycreatednftsdatalength",
      "outputs": [
        {
          "internalType": "uint256",
          "name": "",
          "type": "uint256"
        }
      ],
      "stateMutability": "view",
      "type": "function"
    },
    {
      "inputs": [],
      "name": "getmynfts",
      "outputs": [
        {
          "internalType": "uint256[]",
          "name": "",
          "type": "uint256[]"
        }
      ],
      "stateMutability": "view",
      "type": "function"
    },
    {
      "inputs": [
        {
          "internalType": "address",
          "name": "owner",
          "type": "address"
        },
        {
          "internalType": "address",
          "name": "operator",
          "type": "address"
        }
      ],
      "name": "isApprovedForAll",
      "outputs": [
        {
          "internalType": "bool",
          "name": "",
          "type": "bool"
        }
      ],
      "stateMutability": "view",
      "type": "function"
    },
    {
      "inputs": [],
      "name": "name",
      "outputs": [
        {
          "internalType": "string",
          "name": "",
          "type": "string"
        }
      ],
      "stateMutability": "view",
      "type": "function"
    },
    {
      "inputs": [
        {
          "internalType": "uint256",
          "name": "tokenId",
          "type": "uint256"
        }
      ],
      "name": "ownerOf",
      "outputs": [
        {
          "internalType": "address",
          "name": "",
          "type": "address"
        }
      ],
      "stateMutability": "view",
      "type": "function"
    },
    {
      "inputs": [
        {
          "internalType": "address",
          "name": "from",
          "type": "address"
        },
        {
          "internalType": "address",
          "name": "to",
          "type": "address"
        },
        {
          "internalType": "uint256",
          "name": "tokenId",
          "type": "uint256"
        }
      ],
      "name": "safeTransferFrom",
      "outputs": [],
      "stateMutability": "nonpayable",
      "type": "function"
    },
    {
      "inputs": [
        {
          "internalType": "address",
          "name": "from",
          "type": "address"
        },
        {
          "internalType": "address",
          "name": "to",
          "type": "address"
        },
        {
          "internalType": "uint256",
          "name": "tokenId",
          "type": "uint256"
        },
        {
          "internalType": "bytes",
          "name": "data",
          "type": "bytes"
        }
      ],
      "name": "safeTransferFrom",
      "outputs": [],
      "stateMutability": "nonpayable",
      "type": "function"
    },
    {
      "inputs": [
        {
          "internalType": "address",
          "name": "operator",
          "type": "address"
        },
        {
          "internalType": "bool",
          "name": "approved",
          "type": "bool"
        }
      ],
      "name": "setApprovalForAll",
      "outputs": [],
      "stateMutability": "nonpayable",
      "type": "function"
    },
    {
      "inputs": [
        {
          "internalType": "bytes4",
          "name": "interfaceId",
          "type": "bytes4"
        }
      ],
      "name": "supportsInterface",
      "outputs": [
        {
          "internalType": "bool",
          "name": "",
          "type": "bool"
        }
      ],
      "stateMutability": "view",
      "type": "function"
    },
    {
      "inputs": [],
      "name": "symbol",
      "outputs": [
        {
          "internalType": "string",
          "name": "",
          "type": "string"
        }
      ],
      "stateMutability": "view",
      "type": "function"
    },
    {
      "inputs": [
        {
          "internalType": "uint256",
          "name": "tokenId",
          "type": "uint256"
        }
      ],
      "name": "tokenURI",
      "outputs": [
        {
          "internalType": "string",
          "name": "",
          "type": "string"
        }
      ],
      "stateMutability": "view",
      "type": "function"
    },
    {
      "inputs": [
        {
          "internalType": "address",
          "name": "from",
          "type": "address"
        },
        {
          "internalType": "address",
          "name": "to",
          "type": "address"
        },
        {
          "internalType": "uint256",
          "name": "tokenId",
          "type": "uint256"
        }
      ],
      "name": "transferFrom",
      "outputs": [],
      "stateMutability": "nonpayable",
      "type": "function"
    },
    {
      "inputs": [
        {
          "internalType": "uint256",
          "name": "_tokenid",
          "type": "uint256"
        }
      ],
      "name": "transfernfts",
      "outputs": [
        {
          "internalType": "string",
          "name": "",
          "type": "string"
        }
      ],
      "stateMutability": "nonpayable",
      "type": "function"
    }
  ],
  "bytecode": "0x60806040523480156200001157600080fd5b5060405162001f4438038062001f44833981016040819052620000349162000197565b60405180606001604052806022815260200162001f2260229139604051806040016040528060068152602001651350d153919560d21b815250816000908051906020019062000085929190620000d4565b5080516200009b906001906020840190620000d4565b5050600780546001600160a01b039485166001600160a01b0319918216179091556008805493909416921691909117909155506200020c565b828054620000e290620001cf565b90600052602060002090601f01602090048101928262000106576000855562000151565b82601f106200012157805160ff191683800117855562000151565b8280016001018555821562000151579182015b828111156200015157825182559160200191906001019062000134565b506200015f92915062000163565b5090565b5b808211156200015f576000815560010162000164565b80516001600160a01b03811681146200019257600080fd5b919050565b60008060408385031215620001ab57600080fd5b620001b6836200017a565b9150620001c6602084016200017a565b90509250929050565b600181811c90821680620001e457607f821691505b602082108114156200020657634e487b7160e01b600052602260045260246000fd5b50919050565b611d06806200021c6000396000f3fe608060405234801561001057600080fd5b506004361061012c5760003560e01c806370a08231116100ad578063da2ed03e11610071578063da2ed03e14610286578063da68cdae14610299578063e8ab8b53146102a1578063e985e9c5146102a9578063ecbc4278146102e557600080fd5b806370a082311461022457806395d89b4114610245578063a22cb4651461024d578063b88d4fde14610260578063c87b56dd1461027357600080fd5b8063357de593116100f4578063357de593146101c157806342842e0e146101d65780635a3d5c3a146101e95780636352211e146101fc57806363d2fa031461020f57600080fd5b806301ffc9a71461013157806306fdde0314610159578063081812fc1461016e578063095ea7b31461019957806323b872dd146101ae575b600080fd5b61014461013f3660046116da565b6102f8565b60405190151581526020015b60405180910390f35b61016161034a565b604051610150919061174f565b61018161017c366004611762565b6103dc565b6040516001600160a01b039091168152602001610150565b6101ac6101a7366004611797565b610403565b005b6101ac6101bc3660046117c1565b61051e565b6101c961054f565b60405161015091906117fd565b6101ac6101e43660046117c1565b6105af565b6101ac6101f7366004611762565b6105ca565b61018161020a366004611762565b61064b565b6102176106ab565b6040516101509190611841565b6102376102323660046118d7565b6107c6565b604051908152602001610150565b61016161084c565b6101ac61025b3660046118f2565b61085b565b6101ac61026e3660046119ba565b61086a565b610161610281366004611762565b6108a2565b610237610294366004611a36565b6109b3565b600b54610237565b600a54610237565b6101446102b7366004611a7f565b6001600160a01b03918216600090815260056020908152604080832093909416825291909152205460ff1690565b6101616102f3366004611762565b610af4565b60006001600160e01b031982166380ac58cd60e01b148061032957506001600160e01b03198216635b5e139f60e01b145b8061034457506301ffc9a760e01b6001600160e01b03198316145b92915050565b60606000805461035990611ab2565b80601f016020809104026020016040519081016040528092919081815260200182805461038590611ab2565b80156103d25780601f106103a7576101008083540402835291602001916103d2565b820191906000526020600020905b8154815290600101906020018083116103b557829003601f168201915b5050505050905090565b60006103e782610c6d565b506000908152600460205260409020546001600160a01b031690565b600061040e8261064b565b9050806001600160a01b0316836001600160a01b031614156104815760405162461bcd60e51b815260206004820152602160248201527f4552433732313a20617070726f76616c20746f2063757272656e74206f776e656044820152603960f91b60648201526084015b60405180910390fd5b336001600160a01b038216148061049d575061049d81336102b7565b61050f5760405162461bcd60e51b815260206004820152603d60248201527f4552433732313a20617070726f76652063616c6c6572206973206e6f7420746f60448201527f6b656e206f776e6572206f7220617070726f76656420666f7220616c6c0000006064820152608401610478565b6105198383610ccf565b505050565b6105283382610d3d565b6105445760405162461bcd60e51b815260040161047890611aed565b610519838383610dbb565b336000908152600960209081526040918290208054835181840281018401909452808452606093928301828280156103d257602002820191906000526020600020905b815481526020019060010190808311610592575050505050905090565b6105198383836040518060200160405280600081525061086a565b60006105d5600a5490565b905060005b818110156105195782600a82815481106105f6576105f6611b3a565b9060005260206000209060040201600201541415610639576001600a828154811061062357610623611b3a565b9060005260206000209060040201600301819055505b8061064381611b66565b9150506105da565b6000818152600260205260408120546001600160a01b0316806103445760405162461bcd60e51b8152602060048201526018602482015277115490cdcc8c4e881a5b9d985b1a59081d1bdad95b88125160421b6044820152606401610478565b6060600a805480602002602001604051908101604052809291908181526020016000905b828210156107bd57600084815260209081902060408051608081019091526004850290910180546001600160a01b03168252600181018054929391929184019161071890611ab2565b80601f016020809104026020016040519081016040528092919081815260200182805461074490611ab2565b80156107915780601f1061076657610100808354040283529160200191610791565b820191906000526020600020905b81548152906001019060200180831161077457829003601f168201915b5050505050815260200160028201548152602001600382015481525050815260200190600101906106cf565b50505050905090565b60006001600160a01b0382166108305760405162461bcd60e51b815260206004820152602960248201527f4552433732313a2061646472657373207a65726f206973206e6f7420612076616044820152683634b21037bbb732b960b91b6064820152608401610478565b506001600160a01b031660009081526003602052604090205490565b60606001805461035990611ab2565b610866338383610f2c565b5050565b6108743383610d3d565b6108905760405162461bcd60e51b815260040161047890611aed565b61089c84848484610ffb565b50505050565b60606108ad82610c6d565b600082815260066020526040812080546108c690611ab2565b80601f01602080910402602001604051908101604052809291908181526020018280546108f290611ab2565b801561093f5780601f106109145761010080835404028352916020019161093f565b820191906000526020600020905b81548152906001019060200180831161092257829003601f168201915b50505050509050600061095d60408051602081019091526000815290565b9050805160001415610970575092915050565b8151156109a257808260405160200161098a929190611b81565b60405160208183030381529060405292505050919050565b6109ab8461102e565b949350505050565b600b8054600091826109c483611b66565b91905055506109d533600b546110a1565b6109e1600b54836110bb565b6007546109f8906001600160a01b0316600161085b565b604080516080810182523381526020808201858152600b5493830193909352600060608301819052600a8054600181018255915282517fc65a7bb8d6351c1cf70c95a316cc6a92839c986682d98bc35f958f4883f9d2a8600490920291820180546001600160a01b0319166001600160a01b0390921691909117815593518051939485949093610aac937fc65a7bb8d6351c1cf70c95a316cc6a92839c986682d98bc35f958f4883f9d2a90192019061162b565b50604082810151600283015560609092015160039091015533600090815260096020908152918120600b80548254600181018455928452939092200191909155549392505050565b606033610b008361064b565b6001600160a01b031614610b565760405162461bcd60e51b815260206004820152601760248201527f796f7520646f206e6f74206f776e2074686174206e66740000000000000000006044820152606401610478565b600b54821115610b9c5760405162461bcd60e51b81526020600482015260116024820152701b9bdd08199bdd5b99081d1bdad95b9a59607a1b6044820152606401610478565b6000610ba7600a5490565b905060005b81811015610c5c5783600a8281548110610bc857610bc8611b3a565b9060005260206000209060040201600201541415610c4a57600854610bf89033906001600160a01b03168661051e565b600854600a80546001600160a01b039092169183908110610c1b57610c1b611b3a565b6000918252602090912060049091020180546001600160a01b0319166001600160a01b03929092169190911790555b80610c5481611b66565b915050610bac565b50610c66836108a2565b9392505050565b6000818152600260205260409020546001600160a01b0316610ccc5760405162461bcd60e51b8152602060048201526018602482015277115490cdcc8c4e881a5b9d985b1a59081d1bdad95b88125160421b6044820152606401610478565b50565b600081815260046020526040902080546001600160a01b0319166001600160a01b0384169081179091558190610d048261064b565b6001600160a01b03167f8c5be1e5ebec7d5bd14f71427d1e84f3dd0314c0f7b2291e5b200ac8c7c3b92560405160405180910390a45050565b600080610d498361064b565b9050806001600160a01b0316846001600160a01b03161480610d9057506001600160a01b0380821660009081526005602090815260408083209388168352929052205460ff165b806109ab5750836001600160a01b0316610da9846103dc565b6001600160a01b031614949350505050565b826001600160a01b0316610dce8261064b565b6001600160a01b031614610df45760405162461bcd60e51b815260040161047890611bb0565b6001600160a01b038216610e565760405162461bcd60e51b8152602060048201526024808201527f4552433732313a207472616e7366657220746f20746865207a65726f206164646044820152637265737360e01b6064820152608401610478565b610e638383836001611155565b826001600160a01b0316610e768261064b565b6001600160a01b031614610e9c5760405162461bcd60e51b815260040161047890611bb0565b600081815260046020908152604080832080546001600160a01b03199081169091556001600160a01b0387811680865260038552838620805460001901905590871680865283862080546001019055868652600290945282852080549092168417909155905184937fddf252ad1be2c89b69c2b068fc378daa952ba7f163c4a11628f55a4df523b3ef91a4505050565b816001600160a01b0316836001600160a01b03161415610f8e5760405162461bcd60e51b815260206004820152601960248201527f4552433732313a20617070726f766520746f2063616c6c6572000000000000006044820152606401610478565b6001600160a01b03838116600081815260056020908152604080832094871680845294825291829020805460ff191686151590811790915591519182527f17307eab39ab6107e8899845ad3d59bd9653f200f220920489ca2b5937696c31910160405180910390a3505050565b611006848484610dbb565b611012848484846111dd565b61089c5760405162461bcd60e51b815260040161047890611bf5565b606061103982610c6d565b600061105060408051602081019091526000815290565b905060008151116110705760405180602001604052806000815250610c66565b8061107a846112ea565b60405160200161108b929190611b81565b6040516020818303038152906040529392505050565b610866828260405180602001604052806000815250611387565b6000828152600260205260409020546001600160a01b03166111365760405162461bcd60e51b815260206004820152602e60248201527f45524337323155524953746f726167653a2055524920736574206f66206e6f6e60448201526d32bc34b9ba32b73a103a37b5b2b760911b6064820152608401610478565b600082815260066020908152604090912082516105199284019061162b565b600181111561089c576001600160a01b0384161561119b576001600160a01b03841660009081526003602052604081208054839290611195908490611c47565b90915550505b6001600160a01b0383161561089c576001600160a01b038316600090815260036020526040812080548392906111d2908490611c5e565b909155505050505050565b60006001600160a01b0384163b156112df57604051630a85bd0160e11b81526001600160a01b0385169063150b7a0290611221903390899088908890600401611c76565b602060405180830381600087803b15801561123b57600080fd5b505af192505050801561126b575060408051601f3d908101601f1916820190925261126891810190611cb3565b60015b6112c5573d808015611299576040519150601f19603f3d011682016040523d82523d6000602084013e61129e565b606091505b5080516112bd5760405162461bcd60e51b815260040161047890611bf5565b805181602001fd5b6001600160e01b031916630a85bd0160e11b1490506109ab565b506001949350505050565b606060006112f7836113ba565b600101905060008167ffffffffffffffff8111156113175761131761192e565b6040519080825280601f01601f191660200182016040528015611341576020820181803683370190505b5090508181016020015b600019016f181899199a1a9b1b9c1cb0b131b232b360811b600a86061a8153600a850494508461137a5761137f565b61134b565b509392505050565b6113918383611492565b61139e60008484846111dd565b6105195760405162461bcd60e51b815260040161047890611bf5565b60008072184f03e93ff9f4daa797ed6e38ed64bf6a1f0160401b83106113f95772184f03e93ff9f4daa797ed6e38ed64bf6a1f0160401b830492506040015b6d04ee2d6d415b85acef81000000008310611425576d04ee2d6d415b85acef8100000000830492506020015b662386f26fc10000831061144357662386f26fc10000830492506010015b6305f5e100831061145b576305f5e100830492506008015b612710831061146f57612710830492506004015b60648310611481576064830492506002015b600a83106103445760010192915050565b6001600160a01b0382166114e85760405162461bcd60e51b815260206004820181905260248201527f4552433732313a206d696e7420746f20746865207a65726f20616464726573736044820152606401610478565b6000818152600260205260409020546001600160a01b03161561154d5760405162461bcd60e51b815260206004820152601c60248201527f4552433732313a20746f6b656e20616c7265616479206d696e746564000000006044820152606401610478565b61155b600083836001611155565b6000818152600260205260409020546001600160a01b0316156115c05760405162461bcd60e51b815260206004820152601c60248201527f4552433732313a20746f6b656e20616c7265616479206d696e746564000000006044820152606401610478565b6001600160a01b038216600081815260036020908152604080832080546001019055848352600290915280822080546001600160a01b0319168417905551839291907fddf252ad1be2c89b69c2b068fc378daa952ba7f163c4a11628f55a4df523b3ef908290a45050565b82805461163790611ab2565b90600052602060002090601f016020900481019282611659576000855561169f565b82601f1061167257805160ff191683800117855561169f565b8280016001018555821561169f579182015b8281111561169f578251825591602001919060010190611684565b506116ab9291506116af565b5090565b5b808211156116ab57600081556001016116b0565b6001600160e01b031981168114610ccc57600080fd5b6000602082840312156116ec57600080fd5b8135610c66816116c4565b60005b838110156117125781810151838201526020016116fa565b8381111561089c5750506000910152565b6000815180845261173b8160208601602086016116f7565b601f01601f19169290920160200192915050565b602081526000610c666020830184611723565b60006020828403121561177457600080fd5b5035919050565b80356001600160a01b038116811461179257600080fd5b919050565b600080604083850312156117aa57600080fd5b6117b38361177b565b946020939093013593505050565b6000806000606084860312156117d657600080fd5b6117df8461177b565b92506117ed6020850161177b565b9150604084013590509250925092565b6020808252825182820181905260009190848201906040850190845b8181101561183557835183529284019291840191600101611819565b50909695505050505050565b60006020808301818452808551808352604092508286019150828160051b87010184880160005b838110156118c957888303603f19018552815180516001600160a01b03168452878101516080898601819052906118a182870182611723565b838a0151878b0152606093840151939096019290925250509386019390860190600101611868565b509098975050505050505050565b6000602082840312156118e957600080fd5b610c668261177b565b6000806040838503121561190557600080fd5b61190e8361177b565b91506020830135801515811461192357600080fd5b809150509250929050565b634e487b7160e01b600052604160045260246000fd5b600067ffffffffffffffff8084111561195f5761195f61192e565b604051601f8501601f19908116603f011681019082821181831017156119875761198761192e565b816040528093508581528686860111156119a057600080fd5b858560208301376000602087830101525050509392505050565b600080600080608085870312156119d057600080fd5b6119d98561177b565b93506119e76020860161177b565b925060408501359150606085013567ffffffffffffffff811115611a0a57600080fd5b8501601f81018713611a1b57600080fd5b611a2a87823560208401611944565b91505092959194509250565b600060208284031215611a4857600080fd5b813567ffffffffffffffff811115611a5f57600080fd5b8201601f81018413611a7057600080fd5b6109ab84823560208401611944565b60008060408385031215611a9257600080fd5b611a9b8361177b565b9150611aa96020840161177b565b90509250929050565b600181811c90821680611ac657607f821691505b60208210811415611ae757634e487b7160e01b600052602260045260246000fd5b50919050565b6020808252602d908201527f4552433732313a2063616c6c6572206973206e6f7420746f6b656e206f776e6560408201526c1c881bdc88185c1c1c9bdd9959609a1b606082015260800190565b634e487b7160e01b600052603260045260246000fd5b634e487b7160e01b600052601160045260246000fd5b6000600019821415611b7a57611b7a611b50565b5060010190565b60008351611b938184602088016116f7565b835190830190611ba78183602088016116f7565b01949350505050565b60208082526025908201527f4552433732313a207472616e736665722066726f6d20696e636f72726563742060408201526437bbb732b960d91b606082015260800190565b60208082526032908201527f4552433732313a207472616e7366657220746f206e6f6e20455243373231526560408201527131b2b4bb32b91034b6b83632b6b2b73a32b960711b606082015260800190565b600082821015611c5957611c59611b50565b500390565b60008219821115611c7157611c71611b50565b500190565b6001600160a01b0385811682528416602082015260408101839052608060608201819052600090611ca990830184611723565b9695505050505050565b600060208284031215611cc557600080fd5b8151610c66816116c456fea26469706673582212201268a365741bf7d2c9938e51b351453a1fc1102250e982cd83e21874c0bd972364736f6c634300080900334d756c74692d436861696e204569646f6f78204e4654204d61726b6574706c616365",
  "linkReferences": {},
  "deployedLinkReferences": {}
}