{
  "_format": "hh-sol-artifact-1",
  "contractName": "EthereumNFTMarketplace",
  "sourceName": "contracts/NFTMarketplaces/NFTMarketplaceEthereum.sol",
  "abi": [
    {
      "inputs": [
        {
          "internalType": "uint256",
          "name": "_feespercentage",
          "type": "uint256"
        },
        {
          "internalType": "address",
          "name": "_nftvaultaddress",
          "type": "address"
        }
      ],
      "stateMutability": "nonpayable",
      "type": "constructor"
    },
    {
      "inputs": [
        {
          "internalType": "uint256",
          "name": "marketitemid",
          "type": "uint256"
        }
      ],
      "name": "buynft",
      "outputs": [],
      "stateMutability": "payable",
      "type": "function"
    },
    {
      "inputs": [],
      "name": "getLatestPriceOfMaticVsUSD",
      "outputs": [
        {
          "internalType": "int256",
          "name": "",
          "type": "int256"
        }
      ],
      "stateMutability": "view",
      "type": "function"
    },
    {
      "inputs": [],
      "name": "getmypurchasednfts",
      "outputs": [
        {
          "components": [
            {
              "internalType": "uint256",
              "name": "itemid",
              "type": "uint256"
            },
            {
              "internalType": "address",
              "name": "nftcontractaddress",
              "type": "address"
            },
            {
              "internalType": "uint256",
              "name": "tokenid",
              "type": "uint256"
            },
            {
              "internalType": "address payable",
              "name": "seller",
              "type": "address"
            },
            {
              "internalType": "address payable",
              "name": "holder",
              "type": "address"
            },
            {
              "internalType": "uint256",
              "name": "price",
              "type": "uint256"
            },
            {
              "internalType": "uint256",
              "name": "issold",
              "type": "uint256"
            },
            {
              "internalType": "uint256",
              "name": "islisted",
              "type": "uint256"
            },
            {
              "internalType": "uint256",
              "name": "istransferred",
              "type": "uint256"
            }
          ],
          "internalType": "struct EthereumNFTMarketplace.nftmarketitem[]",
          "name": "",
          "type": "tuple[]"
        }
      ],
      "stateMutability": "view",
      "type": "function"
    },
    {
      "inputs": [],
      "name": "getnotsoldnfts",
      "outputs": [
        {
          "components": [
            {
              "internalType": "uint256",
              "name": "itemid",
              "type": "uint256"
            },
            {
              "internalType": "address",
              "name": "nftcontractaddress",
              "type": "address"
            },
            {
              "internalType": "uint256",
              "name": "tokenid",
              "type": "uint256"
            },
            {
              "internalType": "address payable",
              "name": "seller",
              "type": "address"
            },
            {
              "internalType": "address payable",
              "name": "holder",
              "type": "address"
            },
            {
              "internalType": "uint256",
              "name": "price",
              "type": "uint256"
            },
            {
              "internalType": "uint256",
              "name": "issold",
              "type": "uint256"
            },
            {
              "internalType": "uint256",
              "name": "islisted",
              "type": "uint256"
            },
            {
              "internalType": "uint256",
              "name": "istransferred",
              "type": "uint256"
            }
          ],
          "internalType": "struct EthereumNFTMarketplace.nftmarketitem[]",
          "name": "",
          "type": "tuple[]"
        }
      ],
      "stateMutability": "view",
      "type": "function"
    },
    {
      "inputs": [
        {
          "internalType": "address",
          "name": "nftcontractaddress",
          "type": "address"
        },
        {
          "internalType": "uint256",
          "name": "tokenid",
          "type": "uint256"
        },
        {
          "internalType": "uint256",
          "name": "price",
          "type": "uint256"
        }
      ],
      "name": "listnft",
      "outputs": [],
      "stateMutability": "nonpayable",
      "type": "function"
    },
    {
      "inputs": [
        {
          "internalType": "uint256",
          "name": "marketitemid",
          "type": "uint256"
        }
      ],
      "name": "totalpricewith_marketfees",
      "outputs": [
        {
          "internalType": "uint256",
          "name": "",
          "type": "uint256"
        }
      ],
      "stateMutability": "view",
      "type": "function"
    },
    {
      "inputs": [
        {
          "internalType": "uint256",
          "name": "_tokenid",
          "type": "uint256"
        }
      ],
      "name": "transfernfts",
      "outputs": [],
      "stateMutability": "nonpayable",
      "type": "function"
    }
  ],
  "bytecode": "0x608060405234801561001057600080fd5b50604051610e90380380610e9083398101604081905261002f91610087565b60016000819055600692909255600580546001600160a01b0319908116331790915560028054821673d4a33860578de61dbabdc8bfdb98fd742fa7028e17905582546001600160a01b039290921691161790556100c4565b6000806040838503121561009a57600080fd5b825160208401519092506001600160a01b03811681146100b957600080fd5b809150509250929050565b610dbd806100d36000396000f3fe6080604052600436106100705760003560e01c8063cd8d90661161004e578063cd8d9066146100df578063d8d0ab5a146100ff578063ecbc427814610114578063fee96b911461013457600080fd5b80632af31c3814610075578063a8746345146100a8578063aa5738ae146100bd575b600080fd5b34801561008157600080fd5b50610095610090366004610b49565b610149565b6040519081526020015b60405180910390f35b6100bb6100b6366004610b49565b61018a565b005b3480156100c957600080fd5b506100d26103ba565b60405161009f9190610b62565b3480156100eb57600080fd5b506100bb6100fa366004610c0a565b610596565b34801561010b57600080fd5b506100d2610798565b34801561012057600080fd5b506100bb61012f366004610b49565b61091c565b34801561014057600080fd5b506100956109f4565b600081815260086020526040812060050154600654829061016b906064610c61565b6101759083610c79565b9050610182606482610c98565b949350505050565b610192610a88565b6000811180156101a457506003548111155b6101ee5760405162461bcd60e51b81526020600482015260166024820152751a5b9d985b1a59081b585c9ad95d081a5d195b481a5960521b60448201526064015b60405180910390fd5b60008181526008602052604081206005810154600182015460029092015490926001600160a01b039092169161022385610149565b90508034146102745760405162461bcd60e51b815260206004820152601860248201527f50617920776861742073656c6c6572207265717569726573000000000000000060448201526064016101e5565b6000858152600860205260408082206003015490516001600160a01b039091169186156108fc02918791818181858888f193505050501580156102bb573d6000803e3d6000fd5b506040516323b872dd60e01b8152306004820152336024820152604481018390526001600160a01b038416906323b872dd90606401600060405180830381600087803b15801561030a57600080fd5b505af115801561031e573d6000803e3d6000fd5b50506005546001600160a01b031691506108fc905061033d8684610cba565b6040518115909202916000818181858888f19350505050158015610365573d6000803e3d6000fd5b506000858152600860205260408120600480820180546001600160a01b031916331790556001600683015560079091018290558054916103a483610cd1565b9190505550505050506103b76001600055565b50565b600354606090600080805b838110156104205733600860006103dd846001610c61565b81526020810191909152604001600020600401546001600160a01b0316141561040e5761040b600184610c61565b92505b8061041881610cd1565b9150506103c5565b5060008267ffffffffffffffff81111561043c5761043c610cec565b60405190808252806020026020018201604052801561047557816020015b610462610ae2565b81526020019060019003908161045a5790505b50905060005b60035481101561058d573360086000610495846001610c61565b81526020810191909152604001600020600401546001600160a01b0316141561057b5760006104c5826001610c61565b6000818152600860208181526040928390208351610120810185528154815260018201546001600160a01b039081169382019390935260028201549481019490945260038101548216606085015260048101549091166080840152600581015460a0840152600681015460c0840152600781015460e08401529081015461010083015285519293509185908790811061056057610560610d02565b6020908102919091010152610576600186610c61565b945050505b8061058581610cd1565b91505061047b565b50949350505050565b61059e610a88565b600081116105ee5760405162461bcd60e51b815260206004820152601b60248201527f70726963652073686f756c642067726561746572207468616e2030000000000060448201526064016101e5565b600380549060006105fe83610cd1565b90915550506040805161012081018252600380548083526001600160a01b038088166020808601918252858701898152336060880190815260006080890181815260a08a018c815260c08b01838152600160e08d018181526101008e018681529b86526008988990529d85208d51815598519089018054918b166001600160a01b031992831617905595516002890155935199870180549a89169a86169a909a1790995551600486018054919097169316929092179094559451600583015591516006820155945160078601559051930192909255905b6003548110156107215760008181526008602052604090206002015484141561070f57600081815260086020526040902060016007909101555b8061071981610cd1565b9150506106d5565b506040516323b872dd60e01b8152336004820152306024820152604481018490526001600160a01b038516906323b872dd90606401600060405180830381600087803b15801561077057600080fd5b505af1158015610784573d6000803e3d6000fd5b50505050506107936001600055565b505050565b600354600454606091906000906107af9083610cba565b90506000808267ffffffffffffffff8111156107cd576107cd610cec565b60405190808252806020026020018201604052801561080657816020015b6107f3610ae2565b8152602001906001900390816107eb5790505b50905060005b8481101561058d576000600881610824846001610c61565b81526020810191909152604001600020600401546001600160a01b0316141561090a576000610854826001610c61565b6000818152600860208181526040928390208351610120810185528154815260018201546001600160a01b039081169382019390935260028201549481019490945260038101548216606085015260048101549091166080840152600581015460a0840152600681015460c0840152600781015460e0840152908101546101008301528551929350918590879081106108ef576108ef610d02565b6020908102919091010152610905600186610c61565b945050505b8061091481610cd1565b91505061080c565b60035460005b81811015610793576000818152600860205260409020600401546001600160a01b03163314156109e25760008181526008602052604090819020600190810154905491516323b872dd60e01b81523360048201526001600160a01b039283166024820152604481018690529116906323b872dd90606401600060405180830381600087803b1580156109b357600080fd5b505af11580156109c7573d6000803e3d6000fd5b50505060008281526008602081905260409091206001910155505b806109ec81610cd1565b915050610922565b600080600260009054906101000a90046001600160a01b03166001600160a01b031663feaf968c6040518163ffffffff1660e01b815260040160a06040518083038186803b158015610a4557600080fd5b505afa158015610a59573d6000803e3d6000fd5b505050506040513d601f19601f82011682018060405250810190610a7d9190610d37565b509195945050505050565b60026000541415610adb5760405162461bcd60e51b815260206004820152601f60248201527f5265656e7472616e637947756172643a207265656e7472616e742063616c6c0060448201526064016101e5565b6002600055565b6040518061012001604052806000815260200160006001600160a01b031681526020016000815260200160006001600160a01b0316815260200160006001600160a01b03168152602001600081526020016000815260200160008152602001600081525090565b600060208284031215610b5b57600080fd5b5035919050565b602080825282518282018190526000919060409081850190868401855b82811015610bfd57815180518552868101516001600160a01b039081168887015286820151878701526060808301518216908701526080808301519091169086015260a0808201519086015260c0808201519086015260e0808201519086015261010090810151908501526101209093019290850190600101610b7f565b5091979650505050505050565b600080600060608486031215610c1f57600080fd5b83356001600160a01b0381168114610c3657600080fd5b95602085013595506040909401359392505050565b634e487b7160e01b600052601160045260246000fd5b60008219821115610c7457610c74610c4b565b500190565b6000816000190483118215151615610c9357610c93610c4b565b500290565b600082610cb557634e487b7160e01b600052601260045260246000fd5b500490565b600082821015610ccc57610ccc610c4b565b500390565b6000600019821415610ce557610ce5610c4b565b5060010190565b634e487b7160e01b600052604160045260246000fd5b634e487b7160e01b600052603260045260246000fd5b805169ffffffffffffffffffff81168114610d3257600080fd5b919050565b600080600080600060a08688031215610d4f57600080fd5b610d5886610d18565b9450602086015193506040860151925060608601519150610d7b60808701610d18565b9050929550929590935056fea26469706673582212200635658d7b133a8d1710c094206c472571fd6ec5fc516536b7fe120860e4541764736f6c63430008090033",
  "linkReferences": {},
  "deployedLinkReferences": {}
}